{
	"Auction.sol": {
		"Auction": {
			"abi": [
				{
					"constant": true,
					"inputs": [
						{
							"name": "",
							"type": "uint256"
						}
					],
					"name": "items",
					"outputs": [
						{
							"name": "itemId",
							"type": "uint256"
						}
					],
					"payable": false,
					"stateMutability": "view",
					"type": "function"
				}
			],
			"devdoc": {
				"methods": {}
			},
			"evm": {
				"assembly": "    /* \"Auction.sol\":28:331  contract Auction{\r... */\n  mstore(0x40, 0x60)\n  jumpi(tag_1, iszero(callvalue))\n  0x0\n  dup1\n  revert\ntag_1:\n  dataSize(sub_0)\n  dup1\n  dataOffset(sub_0)\n  0x0\n  codecopy\n  0x0\n  return\nstop\n\nsub_0: assembly {\n        /* \"Auction.sol\":28:331  contract Auction{\r... */\n      mstore(0x40, 0x60)\n      calldataload(0x0)\n      0x100000000000000000000000000000000000000000000000000000000\n      swap1\n      div\n      0xffffffff\n      and\n      dup1\n      0xbfb231d2\n      eq\n      tag_2\n      jumpi\n      0x0\n      dup1\n      revert\n        /* \"Auction.sol\":303:323  Item[3] public items */\n    tag_2:\n      jumpi(tag_3, iszero(callvalue))\n      0x0\n      dup1\n      revert\n    tag_3:\n      tag_4\n      0x4\n      dup1\n      dup1\n      calldataload\n      swap1\n      0x20\n      add\n      swap1\n      swap2\n      swap1\n      pop\n      pop\n      jump(tag_5)\n    tag_4:\n      mload(0x40)\n      dup1\n      dup3\n      dup2\n      mstore\n      0x20\n      add\n      swap2\n      pop\n      pop\n      mload(0x40)\n      dup1\n      swap2\n      sub\n      swap1\n      return\n    tag_5:\n      0xd\n      dup2\n      0x3\n      dup2\n      lt\n      iszero\n      iszero\n      tag_6\n      jumpi\n      invalid\n    tag_6:\n      0x2\n      mul\n      add\n      0x0\n      swap2\n      pop\n      swap1\n      pop\n      dup1\n      0x0\n      add\n      sload\n      swap1\n      pop\n      dup2\n      jump\t// out\n\n    auxdata: 0xa165627a7a723058201fcf862c2b60b7097864f10f397725735b05b5402e8cfb37620dedc5a0ad93510029\n}\n",
				"bytecode": {
					"linkReferences": {},
					"object": "6060604052341561000f57600080fd5b60be8061001d6000396000f30060606040526000357c0100000000000000000000000000000000000000000000000000000000900463ffffffff168063bfb231d214603c57600080fd5b3415604657600080fd5b605a60048080359060200190919050506070565b6040518082815260200191505060405180910390f35b600d81600381101515607e57fe5b6002020160009150905080600001549050815600a165627a7a723058201fcf862c2b60b7097864f10f397725735b05b5402e8cfb37620dedc5a0ad93510029",
					"opcodes": "PUSH1 0x60 PUSH1 0x40 MSTORE CALLVALUE ISZERO PUSH2 0xF JUMPI PUSH1 0x0 DUP1 REVERT JUMPDEST PUSH1 0xBE DUP1 PUSH2 0x1D PUSH1 0x0 CODECOPY PUSH1 0x0 RETURN STOP PUSH1 0x60 PUSH1 0x40 MSTORE PUSH1 0x0 CALLDATALOAD PUSH29 0x100000000000000000000000000000000000000000000000000000000 SWAP1 DIV PUSH4 0xFFFFFFFF AND DUP1 PUSH4 0xBFB231D2 EQ PUSH1 0x3C JUMPI PUSH1 0x0 DUP1 REVERT JUMPDEST CALLVALUE ISZERO PUSH1 0x46 JUMPI PUSH1 0x0 DUP1 REVERT JUMPDEST PUSH1 0x5A PUSH1 0x4 DUP1 DUP1 CALLDATALOAD SWAP1 PUSH1 0x20 ADD SWAP1 SWAP2 SWAP1 POP POP PUSH1 0x70 JUMP JUMPDEST PUSH1 0x40 MLOAD DUP1 DUP3 DUP2 MSTORE PUSH1 0x20 ADD SWAP2 POP POP PUSH1 0x40 MLOAD DUP1 SWAP2 SUB SWAP1 RETURN JUMPDEST PUSH1 0xD DUP2 PUSH1 0x3 DUP2 LT ISZERO ISZERO PUSH1 0x7E JUMPI INVALID JUMPDEST PUSH1 0x2 MUL ADD PUSH1 0x0 SWAP2 POP SWAP1 POP DUP1 PUSH1 0x0 ADD SLOAD SWAP1 POP DUP2 JUMP STOP LOG1 PUSH6 0x627A7A723058 KECCAK256 0x1f 0xcf DUP7 0x2c 0x2b PUSH1 0xB7 MULMOD PUSH25 0x64F10F397725735B05B5402E8CFB37620DEDC5A0AD93510029 "
				},
				"gasEstimates": {
					"creation": {
						"codeDepositCost": "38000",
						"executionCost": "82",
						"totalCost": "38082"
					},
					"external": {
						"items(uint256)": "469"
					}
				},
				"methodIdentifiers": {
					"items(uint256)": "bfb231d2"
				}
			},
			"userdoc": {
				"methods": {}
			}
		}
	}
}