{
	"Auction.sol": {
		"Auction": {
			"abi": [
				{
					"constant": false,
					"inputs": [],
					"name": "Register",
					"outputs": [],
					"payable": true,
					"stateMutability": "payable",
					"type": "function"
				},
				{
					"constant": true,
					"inputs": [],
					"name": "beneficiary",
					"outputs": [
						{
							"name": "",
							"type": "address"
						}
					],
					"payable": false,
					"stateMutability": "view",
					"type": "function"
				},
				{
					"constant": true,
					"inputs": [
						{
							"name": "",
							"type": "uint256"
						}
					],
					"name": "winners",
					"outputs": [
						{
							"name": "",
							"type": "address"
						}
					],
					"payable": false,
					"stateMutability": "view",
					"type": "function"
				},
				{
					"constant": true,
					"inputs": [
						{
							"name": "",
							"type": "uint256"
						}
					],
					"name": "items",
					"outputs": [
						{
							"name": "itemId",
							"type": "uint256"
						}
					],
					"payable": false,
					"stateMutability": "view",
					"type": "function"
				},
				{
					"inputs": [],
					"payable": true,
					"stateMutability": "payable",
					"type": "constructor"
				}
			],
			"devdoc": {
				"methods": {}
			},
			"evm": {
				"assembly": "    /* \"Auction.sol\":28:872  contract Auction{\r... */\n  mstore(0x40, 0x60)\n    /* \"Auction.sol\":416:417  0 */\n  0x0\n    /* \"Auction.sol\":397:417  uint bidderCount = 0 */\n  0x17\n  sstore\n    /* \"Auction.sol\":534:558  uint[] memory emptyArray */\n  tag_2\n  jump\t// in(tag_3)\ntag_2:\n    /* \"Auction.sol\":511:521  msg.sender */\n  caller\n    /* \"Auction.sol\":497:508  beneficiary */\n  0x16\n  0x0\n    /* \"Auction.sol\":497:521  beneficiary = msg.sender */\n  0x100\n  exp\n  dup2\n  sload\n  dup2\n  0xffffffffffffffffffffffffffffffffffffffff\n  mul\n  not\n  and\n  swap1\n  dup4\n  0xffffffffffffffffffffffffffffffffffffffff\n  and\n  mul\n  or\n  swap1\n  sstore\n  pop\n    /* \"Auction.sol\":580:618  Item({itemId:0,itemTokens:emptyArray}) */\n  0x40\n  dup1\n  mload\n  swap1\n  dup2\n  add\n  0x40\n  mstore\n  dup1\n    /* \"Auction.sol\":593:594  0 */\n  0x0\n    /* \"Auction.sol\":580:618  Item({itemId:0,itemTokens:emptyArray}) */\n  dup2\n  mstore\n  0x20\n  add\n    /* \"Auction.sol\":606:616  emptyArray */\n  dup3\n    /* \"Auction.sol\":580:618  Item({itemId:0,itemTokens:emptyArray}) */\n  dup2\n  mstore\n  pop\n    /* \"Auction.sol\":569:574  items */\n  0xd\n    /* \"Auction.sol\":575:576  0 */\n  0x0\n    /* \"Auction.sol\":569:577  items[0] */\n  0x3\n  dup2\n  lt\n  iszero\n  iszero\n  tag_5\n  jumpi\n  invalid\ntag_5:\n  0x2\n  mul\n  add\n    /* \"Auction.sol\":569:618  items[0] = Item({itemId:0,itemTokens:emptyArray}) */\n  0x0\n  dup3\n  add\n  mload\n  dup2\n  0x0\n  add\n  sstore\n  0x20\n  dup3\n  add\n  mload\n  dup2\n  0x1\n  add\n  swap1\n  dup1\n  mload\n  swap1\n  0x20\n  add\n  swap1\n  tag_7\n  swap3\n  swap2\n  swap1\n  jump\t// in(tag_8)\ntag_7:\n  pop\n  swap1\n  pop\n  pop\n    /* \"Auction.sol\":640:678  Item({itemId:1,itemTokens:emptyArray}) */\n  0x40\n  dup1\n  mload\n  swap1\n  dup2\n  add\n  0x40\n  mstore\n  dup1\n    /* \"Auction.sol\":653:654  1 */\n  0x1\n    /* \"Auction.sol\":640:678  Item({itemId:1,itemTokens:emptyArray}) */\n  dup2\n  mstore\n  0x20\n  add\n    /* \"Auction.sol\":666:676  emptyArray */\n  dup3\n    /* \"Auction.sol\":640:678  Item({itemId:1,itemTokens:emptyArray}) */\n  dup2\n  mstore\n  pop\n    /* \"Auction.sol\":629:634  items */\n  0xd\n    /* \"Auction.sol\":635:636  1 */\n  0x1\n    /* \"Auction.sol\":629:637  items[1] */\n  0x3\n  dup2\n  lt\n  iszero\n  iszero\n  tag_9\n  jumpi\n  invalid\ntag_9:\n  0x2\n  mul\n  add\n    /* \"Auction.sol\":629:678  items[1] = Item({itemId:1,itemTokens:emptyArray}) */\n  0x0\n  dup3\n  add\n  mload\n  dup2\n  0x0\n  add\n  sstore\n  0x20\n  dup3\n  add\n  mload\n  dup2\n  0x1\n  add\n  swap1\n  dup1\n  mload\n  swap1\n  0x20\n  add\n  swap1\n  tag_11\n  swap3\n  swap2\n  swap1\n  jump\t// in(tag_8)\ntag_11:\n  pop\n  swap1\n  pop\n  pop\n    /* \"Auction.sol\":700:738  Item({itemId:2,itemTokens:emptyArray}) */\n  0x40\n  dup1\n  mload\n  swap1\n  dup2\n  add\n  0x40\n  mstore\n  dup1\n    /* \"Auction.sol\":713:714  2 */\n  0x2\n    /* \"Auction.sol\":700:738  Item({itemId:2,itemTokens:emptyArray}) */\n  dup2\n  mstore\n  0x20\n  add\n    /* \"Auction.sol\":726:736  emptyArray */\n  dup3\n    /* \"Auction.sol\":700:738  Item({itemId:2,itemTokens:emptyArray}) */\n  dup2\n  mstore\n  pop\n    /* \"Auction.sol\":689:694  items */\n  0xd\n    /* \"Auction.sol\":695:696  2 */\n  0x2\n    /* \"Auction.sol\":689:697  items[2] */\n  0x3\n  dup2\n  lt\n  iszero\n  iszero\n  tag_12\n  jumpi\n  invalid\ntag_12:\n  0x2\n  mul\n  add\n    /* \"Auction.sol\":689:738  items[2] = Item({itemId:2,itemTokens:emptyArray}) */\n  0x0\n  dup3\n  add\n  mload\n  dup2\n  0x0\n  add\n  sstore\n  0x20\n  dup3\n  add\n  mload\n  dup2\n  0x1\n  add\n  swap1\n  dup1\n  mload\n  swap1\n  0x20\n  add\n  swap1\n  tag_14\n  swap3\n  swap2\n  swap1\n  jump\t// in(tag_8)\ntag_14:\n  pop\n  swap1\n  pop\n  pop\n    /* \"Auction.sol\":426:746  function Auction() public payable{              //constructor\r... */\n  pop\n    /* \"Auction.sol\":28:872  contract Auction{\r... */\n  jump(tag_15)\ntag_3:\n  0x20\n  mload(0x40)\n  swap1\n  dup2\n  add\n  0x40\n  mstore\n  dup1\n  0x0\n  dup2\n  mstore\n  pop\n  swap1\n  jump\t// out\ntag_8:\n  dup3\n  dup1\n  sload\n  dup3\n  dup3\n  sstore\n  swap1\n  0x0\n  mstore\n  keccak256(0x0, 0x20)\n  swap1\n  dup2\n  add\n  swap3\n  dup3\n  iszero\n  tag_16\n  jumpi\n  swap2\n  0x20\n  mul\n  dup3\n  add\ntag_17:\n  dup3\n  dup2\n  gt\n  iszero\n  tag_18\n  jumpi\n  dup3\n  mload\n  dup3\n  sstore\n  swap2\n  0x20\n  add\n  swap2\n  swap1\n  0x1\n  add\n  swap1\n  jump(tag_17)\ntag_18:\ntag_16:\n  pop\n  swap1\n  pop\n  tag_19\n  swap2\n  swap1\n  jump\t// in(tag_20)\ntag_19:\n  pop\n  swap1\n  jump\t// out\ntag_20:\n  tag_21\n  swap2\n  swap1\ntag_22:\n  dup1\n  dup3\n  gt\n  iszero\n  tag_23\n  jumpi\n  0x0\n  dup2\n  0x0\n  swap1\n  sstore\n  pop\n  0x1\n  add\n  jump(tag_22)\ntag_23:\n  pop\n  swap1\n  jump\ntag_21:\n  swap1\n  jump\t// out\ntag_15:\n  dataSize(sub_0)\n  dup1\n  dataOffset(sub_0)\n  0x0\n  codecopy\n  0x0\n  return\nstop\n\nsub_0: assembly {\n        /* \"Auction.sol\":28:872  contract Auction{\r... */\n      mstore(0x40, 0x60)\n      calldataload(0x0)\n      0x100000000000000000000000000000000000000000000000000000000\n      swap1\n      div\n      0xffffffff\n      and\n      dup1\n      0x19e5bf3a\n      eq\n      tag_2\n      jumpi\n      dup1\n      0x38af3eed\n      eq\n      tag_3\n      jumpi\n      dup1\n      0xa2fb1175\n      eq\n      tag_4\n      jumpi\n      dup1\n      0xbfb231d2\n      eq\n      tag_5\n      jumpi\n      0x0\n      dup1\n      revert\n        /* \"Auction.sol\":755:861  function Register() public payable{\r... */\n    tag_2:\n      tag_6\n      jump(tag_7)\n    tag_6:\n      stop\n        /* \"Auction.sol\":362:388  address public beneficiary */\n    tag_3:\n      jumpi(tag_8, iszero(callvalue))\n      0x0\n      dup1\n      revert\n    tag_8:\n      tag_9\n      jump(tag_10)\n    tag_9:\n      mload(0x40)\n      dup1\n      dup3\n      0xffffffffffffffffffffffffffffffffffffffff\n      and\n      0xffffffffffffffffffffffffffffffffffffffff\n      and\n      dup2\n      mstore\n      0x20\n      add\n      swap2\n      pop\n      pop\n      mload(0x40)\n      dup1\n      swap2\n      sub\n      swap1\n      return\n        /* \"Auction.sol\":330:355  address[3] public winners */\n    tag_4:\n      jumpi(tag_11, iszero(callvalue))\n      0x0\n      dup1\n      revert\n    tag_11:\n      tag_12\n      0x4\n      dup1\n      dup1\n      calldataload\n      swap1\n      0x20\n      add\n      swap1\n      swap2\n      swap1\n      pop\n      pop\n      jump(tag_13)\n    tag_12:\n      mload(0x40)\n      dup1\n      dup3\n      0xffffffffffffffffffffffffffffffffffffffff\n      and\n      0xffffffffffffffffffffffffffffffffffffffff\n      and\n      dup2\n      mstore\n      0x20\n      add\n      swap2\n      pop\n      pop\n      mload(0x40)\n      dup1\n      swap2\n      sub\n      swap1\n      return\n        /* \"Auction.sol\":303:323  Item[3] public items */\n    tag_5:\n      jumpi(tag_14, iszero(callvalue))\n      0x0\n      dup1\n      revert\n    tag_14:\n      tag_15\n      0x4\n      dup1\n      dup1\n      calldataload\n      swap1\n      0x20\n      add\n      swap1\n      swap2\n      swap1\n      pop\n      pop\n      jump(tag_16)\n    tag_15:\n      mload(0x40)\n      dup1\n      dup3\n      dup2\n      mstore\n      0x20\n      add\n      swap2\n      pop\n      pop\n      mload(0x40)\n      dup1\n      swap2\n      sub\n      swap1\n      return\n        /* \"Auction.sol\":755:861  function Register() public payable{\r... */\n    tag_7:\n        /* \"Auction.sol\":832:843  bidderCount */\n      sload(0x17)\n        /* \"Auction.sol\":800:807  bidders */\n      0x1\n        /* \"Auction.sol\":808:819  bidderCount */\n      sload(0x17)\n        /* \"Auction.sol\":800:820  bidders[bidderCount] */\n      0x4\n      dup2\n      lt\n      iszero\n      iszero\n      tag_18\n      jumpi\n      invalid\n    tag_18:\n      0x3\n      mul\n      add\n        /* \"Auction.sol\":800:829  bidders[bidderCount].personId */\n      0x1\n      add\n        /* \"Auction.sol\":800:843  bidders[bidderCount].personId = bidderCount */\n      dup2\n      swap1\n      sstore\n      pop\n        /* \"Auction.sol\":755:861  function Register() public payable{\r... */\n      jump\t// out\n        /* \"Auction.sol\":362:388  address public beneficiary */\n    tag_10:\n      0x16\n      0x0\n      swap1\n      sload\n      swap1\n      0x100\n      exp\n      swap1\n      div\n      0xffffffffffffffffffffffffffffffffffffffff\n      and\n      dup2\n      jump\t// out\n        /* \"Auction.sol\":330:355  address[3] public winners */\n    tag_13:\n      0x13\n      dup2\n      0x3\n      dup2\n      lt\n      iszero\n      iszero\n      tag_20\n      jumpi\n      invalid\n    tag_20:\n      add\n      0x0\n      swap2\n      pop\n      sload\n      swap1\n      0x100\n      exp\n      swap1\n      div\n      0xffffffffffffffffffffffffffffffffffffffff\n      and\n      dup2\n      jump\t// out\n        /* \"Auction.sol\":303:323  Item[3] public items */\n    tag_16:\n      0xd\n      dup2\n      0x3\n      dup2\n      lt\n      iszero\n      iszero\n      tag_22\n      jumpi\n      invalid\n    tag_22:\n      0x2\n      mul\n      add\n      0x0\n      swap2\n      pop\n      swap1\n      pop\n      dup1\n      0x0\n      add\n      sload\n      swap1\n      pop\n      dup2\n      jump\t// out\n\n    auxdata: 0xa165627a7a72305820627308b003d267401d1a103628746a51ce3422e45f7804235d4d8a92371331120029\n}\n",
				"bytecode": {
					"linkReferences": {},
					"object": "60606040526000601755610011610154565b33601660006101000a81548173ffffffffffffffffffffffffffffffffffffffff021916908373ffffffffffffffffffffffffffffffffffffffff16021790555060408051908101604052806000815260200182815250600d600060038110151561007857fe5b600202016000820151816000015560208201518160010190805190602001906100a2929190610168565b5090505060408051908101604052806001815260200182815250600d60016003811015156100cc57fe5b600202016000820151816000015560208201518160010190805190602001906100f6929190610168565b5090505060408051908101604052806002815260200182815250600d600260038110151561012057fe5b6002020160008201518160000155602082015181600101908051906020019061014a929190610168565b50905050506101da565b602060405190810160405280600081525090565b8280548282559060005260206000209081019282156101a4579160200282015b828111156101a3578251825591602001919060010190610188565b5b5090506101b191906101b5565b5090565b6101d791905b808211156101d35760008160009055506001016101bb565b5090565b90565b610222806101e96000396000f30060606040526000357c0100000000000000000000000000000000000000000000000000000000900463ffffffff16806319e5bf3a1461005e57806338af3eed14610068578063a2fb1175146100bd578063bfb231d21461012057600080fd5b610066610157565b005b341561007357600080fd5b61007b610178565b604051808273ffffffffffffffffffffffffffffffffffffffff1673ffffffffffffffffffffffffffffffffffffffff16815260200191505060405180910390f35b34156100c857600080fd5b6100de600480803590602001909190505061019e565b604051808273ffffffffffffffffffffffffffffffffffffffff1673ffffffffffffffffffffffffffffffffffffffff16815260200191505060405180910390f35b341561012b57600080fd5b61014160048080359060200190919050506101d3565b6040518082815260200191505060405180910390f35b601754600160175460048110151561016b57fe5b6003020160010181905550565b601660009054906101000a900473ffffffffffffffffffffffffffffffffffffffff1681565b6013816003811015156101ad57fe5b016000915054906101000a900473ffffffffffffffffffffffffffffffffffffffff1681565b600d816003811015156101e257fe5b6002020160009150905080600001549050815600a165627a7a72305820627308b003d267401d1a103628746a51ce3422e45f7804235d4d8a92371331120029",
					"opcodes": "PUSH1 0x60 PUSH1 0x40 MSTORE PUSH1 0x0 PUSH1 0x17 SSTORE PUSH2 0x11 PUSH2 0x154 JUMP JUMPDEST CALLER PUSH1 0x16 PUSH1 0x0 PUSH2 0x100 EXP DUP2 SLOAD DUP2 PUSH20 0xFFFFFFFFFFFFFFFFFFFFFFFFFFFFFFFFFFFFFFFF MUL NOT AND SWAP1 DUP4 PUSH20 0xFFFFFFFFFFFFFFFFFFFFFFFFFFFFFFFFFFFFFFFF AND MUL OR SWAP1 SSTORE POP PUSH1 0x40 DUP1 MLOAD SWAP1 DUP2 ADD PUSH1 0x40 MSTORE DUP1 PUSH1 0x0 DUP2 MSTORE PUSH1 0x20 ADD DUP3 DUP2 MSTORE POP PUSH1 0xD PUSH1 0x0 PUSH1 0x3 DUP2 LT ISZERO ISZERO PUSH2 0x78 JUMPI INVALID JUMPDEST PUSH1 0x2 MUL ADD PUSH1 0x0 DUP3 ADD MLOAD DUP2 PUSH1 0x0 ADD SSTORE PUSH1 0x20 DUP3 ADD MLOAD DUP2 PUSH1 0x1 ADD SWAP1 DUP1 MLOAD SWAP1 PUSH1 0x20 ADD SWAP1 PUSH2 0xA2 SWAP3 SWAP2 SWAP1 PUSH2 0x168 JUMP JUMPDEST POP SWAP1 POP POP PUSH1 0x40 DUP1 MLOAD SWAP1 DUP2 ADD PUSH1 0x40 MSTORE DUP1 PUSH1 0x1 DUP2 MSTORE PUSH1 0x20 ADD DUP3 DUP2 MSTORE POP PUSH1 0xD PUSH1 0x1 PUSH1 0x3 DUP2 LT ISZERO ISZERO PUSH2 0xCC JUMPI INVALID JUMPDEST PUSH1 0x2 MUL ADD PUSH1 0x0 DUP3 ADD MLOAD DUP2 PUSH1 0x0 ADD SSTORE PUSH1 0x20 DUP3 ADD MLOAD DUP2 PUSH1 0x1 ADD SWAP1 DUP1 MLOAD SWAP1 PUSH1 0x20 ADD SWAP1 PUSH2 0xF6 SWAP3 SWAP2 SWAP1 PUSH2 0x168 JUMP JUMPDEST POP SWAP1 POP POP PUSH1 0x40 DUP1 MLOAD SWAP1 DUP2 ADD PUSH1 0x40 MSTORE DUP1 PUSH1 0x2 DUP2 MSTORE PUSH1 0x20 ADD DUP3 DUP2 MSTORE POP PUSH1 0xD PUSH1 0x2 PUSH1 0x3 DUP2 LT ISZERO ISZERO PUSH2 0x120 JUMPI INVALID JUMPDEST PUSH1 0x2 MUL ADD PUSH1 0x0 DUP3 ADD MLOAD DUP2 PUSH1 0x0 ADD SSTORE PUSH1 0x20 DUP3 ADD MLOAD DUP2 PUSH1 0x1 ADD SWAP1 DUP1 MLOAD SWAP1 PUSH1 0x20 ADD SWAP1 PUSH2 0x14A SWAP3 SWAP2 SWAP1 PUSH2 0x168 JUMP JUMPDEST POP SWAP1 POP POP POP PUSH2 0x1DA JUMP JUMPDEST PUSH1 0x20 PUSH1 0x40 MLOAD SWAP1 DUP2 ADD PUSH1 0x40 MSTORE DUP1 PUSH1 0x0 DUP2 MSTORE POP SWAP1 JUMP JUMPDEST DUP3 DUP1 SLOAD DUP3 DUP3 SSTORE SWAP1 PUSH1 0x0 MSTORE PUSH1 0x20 PUSH1 0x0 KECCAK256 SWAP1 DUP2 ADD SWAP3 DUP3 ISZERO PUSH2 0x1A4 JUMPI SWAP2 PUSH1 0x20 MUL DUP3 ADD JUMPDEST DUP3 DUP2 GT ISZERO PUSH2 0x1A3 JUMPI DUP3 MLOAD DUP3 SSTORE SWAP2 PUSH1 0x20 ADD SWAP2 SWAP1 PUSH1 0x1 ADD SWAP1 PUSH2 0x188 JUMP JUMPDEST JUMPDEST POP SWAP1 POP PUSH2 0x1B1 SWAP2 SWAP1 PUSH2 0x1B5 JUMP JUMPDEST POP SWAP1 JUMP JUMPDEST PUSH2 0x1D7 SWAP2 SWAP1 JUMPDEST DUP1 DUP3 GT ISZERO PUSH2 0x1D3 JUMPI PUSH1 0x0 DUP2 PUSH1 0x0 SWAP1 SSTORE POP PUSH1 0x1 ADD PUSH2 0x1BB JUMP JUMPDEST POP SWAP1 JUMP JUMPDEST SWAP1 JUMP JUMPDEST PUSH2 0x222 DUP1 PUSH2 0x1E9 PUSH1 0x0 CODECOPY PUSH1 0x0 RETURN STOP PUSH1 0x60 PUSH1 0x40 MSTORE PUSH1 0x0 CALLDATALOAD PUSH29 0x100000000000000000000000000000000000000000000000000000000 SWAP1 DIV PUSH4 0xFFFFFFFF AND DUP1 PUSH4 0x19E5BF3A EQ PUSH2 0x5E JUMPI DUP1 PUSH4 0x38AF3EED EQ PUSH2 0x68 JUMPI DUP1 PUSH4 0xA2FB1175 EQ PUSH2 0xBD JUMPI DUP1 PUSH4 0xBFB231D2 EQ PUSH2 0x120 JUMPI PUSH1 0x0 DUP1 REVERT JUMPDEST PUSH2 0x66 PUSH2 0x157 JUMP JUMPDEST STOP JUMPDEST CALLVALUE ISZERO PUSH2 0x73 JUMPI PUSH1 0x0 DUP1 REVERT JUMPDEST PUSH2 0x7B PUSH2 0x178 JUMP JUMPDEST PUSH1 0x40 MLOAD DUP1 DUP3 PUSH20 0xFFFFFFFFFFFFFFFFFFFFFFFFFFFFFFFFFFFFFFFF AND PUSH20 0xFFFFFFFFFFFFFFFFFFFFFFFFFFFFFFFFFFFFFFFF AND DUP2 MSTORE PUSH1 0x20 ADD SWAP2 POP POP PUSH1 0x40 MLOAD DUP1 SWAP2 SUB SWAP1 RETURN JUMPDEST CALLVALUE ISZERO PUSH2 0xC8 JUMPI PUSH1 0x0 DUP1 REVERT JUMPDEST PUSH2 0xDE PUSH1 0x4 DUP1 DUP1 CALLDATALOAD SWAP1 PUSH1 0x20 ADD SWAP1 SWAP2 SWAP1 POP POP PUSH2 0x19E JUMP JUMPDEST PUSH1 0x40 MLOAD DUP1 DUP3 PUSH20 0xFFFFFFFFFFFFFFFFFFFFFFFFFFFFFFFFFFFFFFFF AND PUSH20 0xFFFFFFFFFFFFFFFFFFFFFFFFFFFFFFFFFFFFFFFF AND DUP2 MSTORE PUSH1 0x20 ADD SWAP2 POP POP PUSH1 0x40 MLOAD DUP1 SWAP2 SUB SWAP1 RETURN JUMPDEST CALLVALUE ISZERO PUSH2 0x12B JUMPI PUSH1 0x0 DUP1 REVERT JUMPDEST PUSH2 0x141 PUSH1 0x4 DUP1 DUP1 CALLDATALOAD SWAP1 PUSH1 0x20 ADD SWAP1 SWAP2 SWAP1 POP POP PUSH2 0x1D3 JUMP JUMPDEST PUSH1 0x40 MLOAD DUP1 DUP3 DUP2 MSTORE PUSH1 0x20 ADD SWAP2 POP POP PUSH1 0x40 MLOAD DUP1 SWAP2 SUB SWAP1 RETURN JUMPDEST PUSH1 0x17 SLOAD PUSH1 0x1 PUSH1 0x17 SLOAD PUSH1 0x4 DUP2 LT ISZERO ISZERO PUSH2 0x16B JUMPI INVALID JUMPDEST PUSH1 0x3 MUL ADD PUSH1 0x1 ADD DUP2 SWAP1 SSTORE POP JUMP JUMPDEST PUSH1 0x16 PUSH1 0x0 SWAP1 SLOAD SWAP1 PUSH2 0x100 EXP SWAP1 DIV PUSH20 0xFFFFFFFFFFFFFFFFFFFFFFFFFFFFFFFFFFFFFFFF AND DUP2 JUMP JUMPDEST PUSH1 0x13 DUP2 PUSH1 0x3 DUP2 LT ISZERO ISZERO PUSH2 0x1AD JUMPI INVALID JUMPDEST ADD PUSH1 0x0 SWAP2 POP SLOAD SWAP1 PUSH2 0x100 EXP SWAP1 DIV PUSH20 0xFFFFFFFFFFFFFFFFFFFFFFFFFFFFFFFFFFFFFFFF AND DUP2 JUMP JUMPDEST PUSH1 0xD DUP2 PUSH1 0x3 DUP2 LT ISZERO ISZERO PUSH2 0x1E2 JUMPI INVALID JUMPDEST PUSH1 0x2 MUL ADD PUSH1 0x0 SWAP2 POP SWAP1 POP DUP1 PUSH1 0x0 ADD SLOAD SWAP1 POP DUP2 JUMP STOP LOG1 PUSH6 0x627A7A723058 KECCAK256 PUSH3 0x7308B0 SUB 0xd2 PUSH8 0x401D1A103628746A MLOAD 0xce CALLVALUE 0x22 0xe4 0x5f PUSH25 0x4235D4D8A9237133112002900000000000000000000000000 "
				},
				"gasEstimates": {
					"creation": {
						"codeDepositCost": "109200",
						"executionCost": "infinite",
						"totalCost": "infinite"
					},
					"external": {
						"Register()": "20551",
						"beneficiary()": "435",
						"items(uint256)": "535",
						"winners(uint256)": "528"
					}
				},
				"methodIdentifiers": {
					"Register()": "19e5bf3a",
					"beneficiary()": "38af3eed",
					"items(uint256)": "bfb231d2",
					"winners(uint256)": "a2fb1175"
				}
			},
			"userdoc": {
				"methods": {}
			}
		}
	}
}